:100000000C94E2000C9422060C944F060C947C068F
:100010000C94FF000C94FF000C94FF000C94FF0064
:100020000C94FF000C94FF000C9421090C94FF0029
:100030000C94FF000C94AE0A0C94FF000C94FF008B
:100040000C94FF000C94FF000C94FF000C94600EC5
:100050000C94FF007D0A007B636D643D3078007D69
:100060000A003B76616C3D3078007B636D643D3007
:1000700078007D0A003B76616C3D3078007B636DD3
:10008000643D3078007D0A003B76616C3D3078003D
:100090007B636D643D3078000A49324320455252FB
:1000A0004F52202D205457492053544154453A2053
:1000B0003078002E2E2E646F6E652E0A0053746108
:1000C00072742072756E6E696E6720746573742029
:1000D00063617365733A0A005465737420607465D4
:1000E00073745F636D643078303176616C75653040
:1000F00078303272657175657374602070617373E6
:1001000065640A00546573742060746573745F637A
:100110006D643078303172657175657374736570B4
:10012000617261746F7260207061737365640A003C
:10013000546573742060746573745F76616C756563
:100140003078303160207061737365640A005465E3
:1001500073742060746573745F636D6430783031DC
:100160007265717565737460207061737365640A7C
:1001700000546573742060746573745F656D70748A
:10018000795F7265717565737470617273657260A1
:10019000207061737365640A002E2E2E636C656196
:1001A0006E65642075702061667465722074657375
:1001B000742E0A000A536574757020746573742E6A
:1001C0002E2E000011241FBECFE5D8E0DEBFCDBF2C
:1001D00011E0A0E6B0E0E8E3FEE302C005900D9276
:1001E000AA3FB107D9F713E0AAEFB1E001C01D9211
:1001F000A738B107E1F70E942A020C941A1F0C9449
:1002000000000E945210BC0184E893E00E94AB1CE5
:10021000CB010895BF92CF92DF92EF92FF920F939E
:100220001F93DF93CF9300D000D0CDB7DEB70E94ED
:10023000270B882309F0F0C0FFC00E94E50A282F91
:1002400080910002882331F42B3709F0F0C0B0927E
:100250000002EDC040916000509161002D3709F01F
:10026000C7C057FDBEC01A8219821C821B824F5F15
:100270005F4FC60161E072E00E94170580E990E0DF
:100280000E94950A89819A8160E10E943D0B88E86D
:1002900090E00E94950A8B819C8160E10E943D0B59
:1002A00085E890E00E94950A89819A8184309105C1
:1002B00009F44DC08530910550F48230910571F1FB
:1002C00083309105C0F5019709F08BC00DC08630D1
:1002D000910509F459C08630910508F46AC08F3F32
:1002E000910509F07EC047C08091FA019091FB0111
:1002F000181619060CF43FC02B813C812093FA019B
:100300003093FB018091FE019091FF0182179307CA
:10031000B0F52093FE013093FF0131C08091FA01C6
:100320009091FB0197FD27C08B819C819093FB01ED
:100330008093FA0124C08091FC019091FD01181670
:10034000190684F0F092FD01E092FC010FC080914B
:10035000FC019091FD0197FD05C01093FD010093F4
:10036000FC0104C01092FD011092FC011092FB01EF
:100370001092FA0136C01092FB011092FA0110920D
:10038000FD011092FC012DC08DE790E00E94950ABE
:1003900089819A8160E10E943D0B85E790E00E948F
:1003A000950A0E94010160E10E943D0B82E790E006
:1003B00016C08AE690E00E94950A89819A8160E1E0
:1003C0000E943D0B82E690E00E94950A8091FE011A
:1003D0009091FF0160E10E943D0B8FE590E00E944B
:1003E000950A1092000210936100009360001FC0F4
:1003F000CA0101969093610080936000FC01EF5F59
:10040000FD4F20838436910594F010936100009392
:100410006000109200020BC00FEF1FEF6E010894F6
:10042000C11CD11C81E0E82EF12CBB24B3940E94A6
:10043000270B882309F001CF0F900F900F900F909A
:10044000CF91DF911F910F91FF90EF90DF90CF90B0
:10045000BF9008950E94090A0E94C10784EB60E5DD
:1004600070E00E94CA0989E690E00E94F4098CEDD0
:1004700060E570E00E94CA0980E590E00E94F409FE
:1004800088E40E949E0B8EE892E00E94B30B87E501
:1004900090E00E94950A8FEE90E060E10E943D0B93
:1004A00084E590E00E94950A0E94A8020E942D0B0C
:1004B00088EE93E00E94F40984EF91E090930503A5
:1004C00080930403809103038160809303030E945F
:1004D0000A018091FC019091FD01009769F001975C
:1004E00019F48CE362E002C08CE363E043E050E087
:1004F00020E00E942E10EBCF8091FA019091FB0139
:10050000009729F31816190614F460E001C061E0A1
:1005100043E050E020E00E940A10D9CF1F93182F2B
:1005200088E990E00E94950A812F90E060E10E94A6
:100530003D0B8AE00E94870A1F91089589E991E0A6
:100540000E94950A089584EB91E00E94950A08950F
:100550008DEB90E00E94950A0E9421118DEB92E0B4
:1005600062E670E045E050E00E9411140E940B1317
:1005700083EB90E00E94950A08958F929F92AF922C
:10058000BF92CF92EF920F931F93DF93CF9300D040
:1005900000D0CDB7DEB71A8219821C821B82AA2432
:1005A000BB244E010894811C911CC4016FE770E0CC
:1005B00041E150E00E94170529813A8140E050E076
:1005C00060E070E080E090E000E010E0ACE4EA2E53
:1005D000F4E9CF2E0E9454162B813C8140E050E07C
:1005E00060E070E080E090E0EDE4EE2E0E945416B2
:1005F0000894A11CB11C8AE0A816B104B1F688EDDC
:1006000090E00E94950A0F900F900F900F90CF915D
:10061000DF911F910F91EF90CF90BF90AF909F907F
:100620008F9008958F929F92AF92BF92CF92EF9248
:100630000F931F93DF93CF9300D000D0CDB7DEB7D9
:100640001A8219821C821B82AA24BB244E010894A0
:10065000811C911CC40161E970E049E050E00E94F6
:10066000170529813A8140E050E061E070E080E0C8
:1006700090E000E010E0E1E4EE2EB4E9CB2E0E9421
:1006800054160894A11CB11C8AE0A816B10411F7F5
:1006900084E091E00E94950A0F900F900F900F90C8
:1006A000CF91DF911F910F91EF90CF90BF90AF90BE
:1006B0009F908F9008958F929F92AF92BF92CF920A
:1006C000EF920F931F93DF93CF9300D000D0CDB75D
:1006D000DEB71A8219821C821B82AA24BB244E0117
:1006E0000894811C911CC4016BE970E048E050E063
:1006F0000E94170529813A8140E050E061E070E0F6
:1007000080E090E000E010E0ACE2EA2EF4E9CF2EC9
:100710000E9454160894A11CB11C8AE0A816B104CA
:1007200011F78EE491E00E94950A0F900F900F90C0
:100730000F90CF91DF911F910F91EF90CF90BF90CD
:10074000AF909F908F900895CF92EF920F931F9349
:10075000CF93DF93C0E0D0E060E070E080E090E015
:1007600020E030E040E050E000E010E0FFE1EF2E5C
:10077000E4E9CE2E0E94541660E070E080E090E044
:1007800020E030E040E050E0B0E2EB2E0E94541652
:100790002196CA30D10501F781E791E00E94950AC0
:1007A000DF91CF911F910F91EF90CF9008958F928D
:1007B0009F92AF92BF92CF92EF920F931F93DF93CE
:1007C000CF9300D000D0CDB7DEB71A8219821C8239
:1007D0001B82AA24BB244E010894811C911CC401D5
:1007E00064EA70E043E050E020E030E008E010E030
:1007F0000E9429042B813C8140E050E062E070E0DF
:1008000080E090E000E010E0B6E3EB2EA4E9CA2E11
:100810000E9454160894A11CB11C8AE0A816B104C9
:10082000F1F680E391E00E94950A0F900F900F90EF
:100830000F90CF91DF911F910F91EF90CF90BF90CC
:10084000AF909F908F9008950E94870A80E090E07B
:1008500008952F923F924F925F926F927F928F9264
:100860009F92AF92BF92CF92DF92EF92FF920F933F
:100870001F93DF93CF93CDB7DEB74C015B014DB62D
:100880005EB64217530709F4BAC0041B150B0330B8
:10089000110508F4B4C0009709F4B1C03DB62EB6F6
:1008A0007A010894E11CF11CA701421B530B8DB780
:1008B0009EB7841B950B0FB6F8949EBF0FBE8DBFDD
:1008C000CDB6DEB60894C11CD11C260F371FC60159
:1008D000B9010E94AB1E6DEA70E0DB010D900020B3
:1008E000E9F71197A61BB70BC601AD010E949D1E2B
:1008F000009709F47FC061EB70E0DB010D900020F0
:10090000E9F71197A61BB70BC601AD010E949D1E0A
:10091000009709F066C07DB66EB6A8014F5F5F4FC5
:10092000EDB7FEB7E41BF50B0FB6F894FEBF0FBE94
:10093000EDBFCDB6DEB60894C11CD11CEA0CFB1C81
:10094000C601B7010E94AB1EF6018081882309F41D
:1009500040C035C0DDB6CEB68DB79EB7841B950BB3
:100960000FB6F8949EBF0FBE8DBF0DB71EB70F5FB9
:100970001F4FEA0CFB1CC801B7010E94AB1EC80147
:1009800060E070E040E050E00E940F1D7B018C01B0
:1009900085EB90E00E948B0AC70160E10E943D0B4D
:1009A0008DE70E94870AF401F182E0822D2D3C2D13
:1009B000C9010FB6F8949EBF0FBE8DBF12C0C6010D
:1009C00060E070E040E050E00E940F1DF40173838E
:1009D0006283872D962D9C010FB6F8943EBF0FBE03
:1009E0002DBF832D922D9C010FB6F8943EBF0FBEF4
:1009F0002DBF05C0A8014F5F5F4F99F3ABCF0FB676
:100A0000F8945EBE0FBE4DBECF91DF911F910F9146
:100A1000FF90EF90DF90CF90BF90AF909F908F901E
:100A20007F906F905F904F903F902F9008952F92FE
:100A30003F924F925F926F927F928F929F92AF926E
:100A4000BF92CF92DF92EF92FF920F931F93DF93AB
:100A5000CF93CDB7DEB7C05DD0400FB6F894DEBF00
:100A60000FBECDBFC753DF4F99838883C95CD04089
:100A7000C553DF4F79836883CB5CD040FC01118282
:100A800010821382128266247724430122243324A5
:100A9000210180E0AA24BB2465018A0120E030E026
:100AA000C353DF4F088319832A833B83CD5CD04037
:100AB00063C07501C553DF4FE881F981CB5CD0403D
:100AC000EA0DFB1DE081EB3309F04CC06A147B0496
:100AD0008C049D0408F096C0882309F493C0A214E6
:100AE000B304C404D50409F45AC0F501E619F709A2
:100AF000C553DF4F28813981CB5CD040260D371D8F
:100B0000CE010196B901AF010E94941ED601C50124
:100B100086199709A809B909E1E0F0E0EC0FFD1F7B
:100B2000E80FF91F1082A101461957090894E1083E
:100B3000F108C753DF4F88819981C95CD040BE015D
:100B40006F5F7F4F20E030E087010E94290435016C
:100B500046010894611C711C811C911C1301240125
:100B600080E005C0ED3319F41501260181E00894F9
:100B7000A11CB11CC11CD11CC353DF4F288139817A
:100B80004A815B81CD5CD040A216B306C406D5066F
:100B900008F48FCF6A147B048C049D0498F5882395
:100BA00089F1A214B304C404D50461F19501261996
:100BB0003709C553DF4F48815981CB5CD040460D82
:100BC000571D8E010F5F1F4FC801BA01A9010E9476
:100BD000941ED601C50186199709A809B909F8011B
:100BE000E80FF91F1082A10146195709C753DF4FBB
:100BF00088819981C95CD040B80120E030E085014E
:100C00000E942904C053DF4F0FB6F894DEBF0FBE19
:100C1000CDBFCF91DF911F910F91FF90EF90DF90AB
:100C2000CF90BF90AF909F908F907F906F905F908C
:100C30004F903F902F90089508959093C200809315
:100C4000C10008951F920F920FB60F9211242F9397
:100C50003F934F935F936F937F938F939F93AF9344
:100C6000BF93EF93FF93E091C100F091C20009950B
:100C7000FF91EF91BF91AF919F918F917F916F9174
:100C80005F914F913F912F910F900FBE0F901F904A
:100C9000189508959093C0008093BF0008951F9207
:100CA0000F920FB60F9211242F933F934F935F93A0
:100CB0006F937F938F939F93AF93BF93EF93FF9324
:100CC000E091BF00F091C0000995FF91EF91BF91B5
:100CD000AF919F918F917F916F915F914F913F91D4
:100CE0002F910F900FBE0F901F901895089590931D
:100CF000BE008093BD0008951F920F920FB60F9211
:100D000011242F933F934F935F936F937F938F9310
:100D10009F93AF93BF93EF93FF93E091BD00F0914A
:100D2000BE000995FF91EF91BF91AF919F918F9177
:100D30007F916F915F914F913F912F910F900FBED7
:100D40000F901F901895369B03C020E030E009C03B
:100D5000806487B986ED86B93699FECF349A24B17E
:100D600035B1C90108958FB9779BFECF08958FEFF4
:100D70008FB9779BFECF8FB108958FEF8FB9779B97
:100D8000FECF3FB18FEF8FB9779BFECF2FB1932F5F
:100D900080E030E0282B392BC90108959FB9779B5B
:100DA000FECF8FB9779BFECF0895FC0190E006C07F
:100DB00080818FB9779BFECF9F5F31969617C0F3E6
:100DC0000895FC0190E02FEF06C02FB9779BFECF6E
:100DD0008FB181939F5F9617C0F308959C01C098CF
:100DE00083E08FB9779BFECFC9010E94CE068FEFBB
:100DF0008FB9779BFECF8FB1C09A08951F93CF9381
:100E0000DF939C01EB01142FC09883E08FB9779B8F
:100E1000FECFC9010E94CE06CE01612F0E94E106DD
:100E2000C09ADF91CF911F910895C09886E08FB945
:100E3000779BFECFC09A0895C09884E08FB9779BC6
:100E4000FECFC09A0895C09885E08FB9779BFECFFA
:100E50008FEF8FB9779BFECF8FB1C09A0895FF9225
:100E60000F931F93CF93DF93EC01162F072FF42ED0
:100E70000E94230780FDFCCF0E941507C09882E0E6
:100E80008FB9779BFECFCE010E94CE06812F902F87
:100E90009C01F90190E006C080818FB9779BFECF5D
:100EA0009F5F31969F15C0F3C09ADF91CF911F913C
:100EB0000F91FF9008951F93CF93DF93EC01162FAE
:100EC0000E94230780FDFCCF0E941507C09882E096
:100ED0008FB9779BFECFCE010E94CE061FB9779BBC
:100EE000FECFC09ADF91CF911F9108958091140396
:100EF0008FB9779BFECF949A0000000094980895D4
:100F00008F7090911403907F982B909314030E94FC
:100F1000760708958295807F909114039F70982B97
:100F2000909314030E947607C49A82E390E001C074
:100F3000000001972FEF8F3F9207D1F7C4980895D3
:100F40001F93182F82958F700E948A07812F0E940D
:100F50008A0786E990E001C0000001972FEF8F3FDC
:100F60009207D1F71F910895C3980E94A00786E9C0
:100F700090E001C0000001972FEF8F3F9207D1F75B
:100F8000089583E00E948A0780E596E401C000008E
:100F900001972FEF8F3F9207D1F783E00E948A07D6
:100FA0008CE795E101C0000001972FEF8F3F92077A
:100FB000D1F783E00E948A078CE795E101C0000029
:100FC00001972FEF8F3F9207D1F782E00E948A07A7
:100FD0008CE795E101C0000001972FEF8F3F92074A
:100FE000D1F788E20E94B4078CE795E101C00000C8
:100FF00001972FEF8F3F9207D1F788E00E94B40747
:101000008CE795E101C0000001972FEF8F3F920719
:10101000D1F781E00E94B4078CE795E101C00000A0
:1010200001972FEF8F3F9207D1F782E00E94B4071C
:101030008CE795E101C0000001972FEF8F3F9207E9
:10104000D1F78CE00E94B4078CE795E101C0000065
:1010500001972FEF8F3F9207D1F7089581E00E940B
:10106000B4078CE795E101C0000001972FEF8F3F97
:101070009207D1F70895C39A0E94A00782E390E0F7
:1010800001C0000001972FEF8F3F9207D1F708951D
:10109000CF93DF93EC0102C00E943B08FE01219632
:1010A00084918823C9F7DF91CF910895CF93DF937F
:1010B000EC0103C021960E943B0888818823D1F768
:1010C000DF91CF9108951F93CF93DF93162FEC01FB
:1010D000C40FD11D04C021960E943B081150888185
:1010E000882311F01123B9F7DF91CF911F91089553
:1010F0006068813009F4605C862F0E94B40708950F
:10110000EF92FF920F931F938C017B010E942E0898
:10111000C8010E94480881E060E00E947808C70189
:101120000E9448081F910F91FF90EF9008951F9320
:10113000142F0E94780804C080E20E943B081150DE
:101140001123D1F71F910895CF93DF9381E00E947F
:10115000A306EC0183E0CC3FD80778F40000000040
:10116000000081E00E94A306C80FD91FD695C7953D
:10117000C233D10510F481E018C082E0C434D8072E
:1011800010F482E012C082E0CC3BD80710F483E078
:101190000CC083E0C631D80710F484E006C0CE53FB
:1011A000D34010F080E001C085E0DF91CF91089539
:1011B00080916702882341F00E94A408882311F4DB
:1011C0001092670280E008950E94A408809367024D
:1011D00008951F9310916602112349F00E94A408FC
:1011E000882311F010E007C01092660204C00E942C
:1011F000A40880936602812F1F910895D09AD898F1
:1012000021E030E007C0109215038091150390E0B3
:101210000C97DCF3215030408FEF2F3F380799F7C0
:10122000D0980895CF93DF9380E00E94A306EC014D
:101230008530910510F00E94FE08CE01DF91CF911C
:1012400008951F920F920FB60F9211248F939F93C0
:101250008091E2029091E30201969093E3028093E1
:10126000E202809115038F5F80931503809116032E
:101270008F5F809316038150893008F484C0809179
:10128000030380FF09C08091040390910503019638
:1012900090930503809304038091030381FF09C0A9
:1012A0008091060390910703019690930703809322
:1012B00006038091030382FF09C080910803909187
:1012C0000903019690930903809308038091030317
:1012D00083FF09C080910A0390910B0301969093BC
:1012E0000B0380930A038091030384FF09C080915C
:1012F0000C0390910D03019690930D0380930C03C2
:101300008091030385FF09C080910E0390910F0324
:10131000019690930F0380930E038091030386FF41
:1013200009C08091100390911103019690931103CD
:10133000809310038091030387FF09C080911203FB
:10134000909113030196909313038093120380915D
:10135000F10280FF16C08091170390911803892B2A
:1013600039F415BC8091F1028E7F8093F10209C09F
:10137000809117039091180301979093180380931D
:101380001703109216039F918F910F900FBE0F902D
:101390001F9018959091F10291609093F1027093D3
:1013A000180360931703809583BD8EE185BD089572
:1013B0009091F1029E7F9093F102982F909593BDAA
:1013C000882319F08EE185BD089515BC089510920B
:1013D0001503282F30E02F5F3F4F8091150390E0D9
:1013E00028173907D4F708959C0109C010921503F6
:1013F0008091150390E00C97DCF3215030402115CB
:101400003105A1F7089502C0000001970097E1F7A8
:1014100008951BBA87E088BB8CEF85BB81E682BB51
:101420001ABA8BEB87BB14BA82E981BBF89410BC63
:1014300089E189B91BB886E880BD88E98AB917B8FF
:1014400086E186B910BE8FE085BF1BBE14BE8AE060
:1014500083BF87EC8CBF15BC8FEF83BD82E089BF53
:1014600080E58DB981E08EB9789408950F931F932C
:10147000462F02EF12E0B80150E00E94BA1EC801E8
:101480000E9456081F910F910895EF92FF920F93BB
:101490001F93DF93CF93CDB7DEB761970FB6F89464
:1014A000DEBF0FBECDBF262F042F7E010894E11CA6
:1014B000F11CB701422F50E00E94BA1EF7010190C3
:1014C0000020E9F73197EE19FF09102F1E1B1116A6
:1014D0005CF4115080E30E943B081123D1F7CE0148
:1014E00001960E94560806C01195C701602F412F32
:1014F0000E94630861960FB6F894DEBF0FBECDBFA1
:10150000CF91DF911F910F91FF90EF9008955D9B18
:10151000FECF8CB90895FC0104C05D9BFECF3196CF
:101520008CB980818823C9F7089503C05D9BFECFE5
:101530002CB9FC01019624912223C1F70895FC01E6
:10154000E40FF11D05C05D9BFECF31968CB9615053
:101550008081882311F06623B1F708951F920F92BE
:101560000FB60F9211242F938F939F93EF93FF93B6
:1015700020916B0280916A02922F981B9032A8F4FE
:1015800080916902E82FF0E09CB1E65EFC4F908309
:101590008F5F809369022F5F20936B02813210F07E
:1015A000109269021092190306C08CB180936D02EB
:1015B00081E080931903FF91EF919F918F912F917B
:1015C0000F900FBE0F901F901895109219039091D5
:1015D0006A0280916B02891711F4E0E013C09F5FEB
:1015E00090936A0280916802813210F01092680232
:1015F00080916802E82FF0E0E65EFC4FE0818F5FAB
:10160000809368028E2F089510921903DC0120E068
:1016100014C09F5F90936A0280916802E82FF0E007
:10162000E65EFC4F90819C938F5F809368028132CD
:1016300010F0109268022F5F119690916A028091CB
:101640006B02891711F0261720F3822F08958091DD
:101650006B0290916A02891B089557988CB1809310
:101660006C02109268021092690210926A02109243
:101670006B0210921903579A08950F931F93DF93EB
:10168000CF93CDB7DEB761970FB6F894DEBF0FBE2C
:10169000CDBF462F8E010F5F1F4FB80150E00E9453
:1016A000BA1EC8010E948B0A61960FB6F894DEBF7D
:1016B0000FBECDBFCF91DF911F910F910895FF9283
:1016C0000F931F93DF93CF93CDB7DEB761970FB61C
:1016D000F894DEBF0FBECDBF262FF42E8E010F5F14
:1016E0001F4FB801422F50E00E94BA1EF80101902E
:1016F0000020E9F73197E01BF10B4F2D4E1B14161C
:1017000064F480E341505D9BFECF8CB94423D1F754
:10171000CE0101960E948B0A05C04195C8016F2D2C
:101720000E949F0A61960FB6F894DEBF0FBECDBF30
:10173000CF91DF911F910F91FF900895F89480B998
:1017400011B88FEF83B984E086BF80916E0281600B
:1017500080936E027894089508959093C4008093C6
:10176000C300089508959093C6008093C50008951E
:10177000DF93CF930F92CDB7DEB786E98983898156
:10178000815089838F5FD9F70F90CF91DF910895B2
:10179000DF93CF930F92CDB7DEB706B600FC6EC0D5
:1017A00080916E0280FF4EC080917502882309F4FB
:1017B00065C08130C9F486E9898389818150898334
:1017C0008F5FD9F792E09093B70280917002809377
:1017D0007702809171028093780210926E0285EAFE
:1017E00086BF909375024AC08230D9F486E9898316
:1017F0008981815089838F5FD9F7809172028F5FD1
:101800008093B70280917002816080937002809310
:10181000770210926E0285EA86BF83E0809375029C
:101820002DC0833059F5109275028091730290910A
:1018300074022FEF8F3F920709F1E091C300F091FE
:10184000C4001BC006B600FCFDCF90916F02992327
:10185000A9F01092750280916E02816080936E02F1
:10186000109270021092740210927302109272021F
:10187000E091C500F091C600892F09950F90CF9196
:10188000DF910895FF920F931F93182F062FF42EC8
:1018900002C00E94C80B06B600FCFBCF8091750207
:1018A0008823B9F782E08093750210937002009349
:1018B000730210927402F09272021F910F91FF90C6
:1018C0000895EF92FF920F931F93E82E162F042F87
:1018D000F22E02C00E94C80B06B600FCFBCF80911E
:1018E00075028823B9F781E0809375021093730223
:1018F00010927402E092700200937102F0927202F0
:101900001F910F91FF90EF9008959C0106B600FC87
:10191000FDCF80916E0280FF0CC0E8E8F2E0D901B3
:1019200070E06E0F7F1F02C081918D93E617F7075D
:10193000D9F7089506B600FCFDCF80916F02089597
:10194000FF920F931F93CF93DF93082FF62EEA0198
:10195000122F02C00E94C80B06B600FCFBCF80917C
:1019600075028823B9F781E08093750200937002B5
:101970008FEF9FEF9093740280937302F092710245
:101980001093720202C00E94C80B06B600FCFBCF87
:10199000809175028823B9F780916E0280FF05C09F
:1019A0001F5FCE01612F0E94850CDF91CF911F91A7
:1019B0000F91FF900895EF92FF920F931F93DF9383
:1019C000CF930F92CDB7DEB7082F7B01142F02C043
:1019D0000E94C80B06B600FCFBCF809175028823DD
:1019E000B9F786E989838981815089838F5FD9F727
:1019F00082E080937502009370028FEF9FEF9093C7
:101A00007402809373021093720202C00E94C80B8A
:101A100006B600FCFBCF809175028823B9F7809150
:101A20006E0280FF05C01F5FC701612F0E94850CF9
:101A30000F90CF91DF911F910F91FF90EF9008953C
:101A40001F93DF93CF930F92CDB7DEB7182F02C04D
:101A50000E94C80B06B600FCFBCF8091750288235C
:101A6000B9F786E989838981815089838F5FD9F7A6
:101A700082E080937502109370028FEF9FEF909336
:101A800074028093730281E08093720202C00E940C
:101A9000C80B809175028823D1F780916E0280FD7A
:101AA00002C080E002C0809188020F90CF91DF9148
:101AB0001F9108950F931F93DF93CF930F92CDB78C
:101AC000DEB7182F062F02C00E94C80B06B600FC16
:101AD000FBCF809175028823B9F786E989838981D4
:101AE000815089838F5FD9F782E08093B70210938A
:101AF00077020093780210926E0285EA86BF0F90FB
:101B0000CF91DF911F910F910895FF920F931F9333
:101B1000DF93CF930F92CDB7DEB7182F062FF42E99
:101B200002C00E94C80B06B600FCFBCF8091750274
:101B30008823B9F786E989838981815089838F5FFA
:101B4000D9F783E08093B70210937702009378026D
:101B5000F092790210926E0285EA86BF0F90CF91C3
:101B6000DF911F910F91FF900895EF92FF920F93D5
:101B70001F93DF93CF930F92CDB7DEB7182F062FA9
:101B8000F42EE22E02C00E94C80B06B600FCFBCF6A
:101B9000809175028823B9F786E98983898181500C
:101BA00089838F5FD9F784E08093B702109377021F
:101BB00000937802F0927902E0927A0210926E021B
:101BC00085EA86BF0F90CF91DF911F910F91FF9013
:101BD000EF900895DF92EF92FF920F931F93DF93A0
:101BE000CF930F92CDB7DEB7182FF62EE42ED22E5C
:101BF00002C00E94C80B06B600FCFBCF80917502A4
:101C00008823B9F786E989838981815089838F5F29
:101C1000D9F785E08093B70210937702F0927802AB
:101C2000E0927902D0927A0200937B0210926E02C7
:101C300085EA86BF0F90CF91DF911F910F91FF90A2
:101C4000EF90DF900895EF92FF920F931F93DF9331
:101C5000CF930F92CDB7DEB7082FF62EE72E142FB5
:101C600002C00E94C80B06B600FCFBCF8091750233
:101C70008823B9F786E989838981815089838F5FB9
:101C8000D9F7412F4F5F4093B70200937702A8E73F
:101C9000B2E08F2D9E2D9C01F90102C081918D93A0
:101CA0008E2F8F198417D0F310926E0285EA86BFAB
:101CB0000F90CF91DF911F910F91FF90EF900895BA
:101CC0001F920F920FB60F9211242F933F938F9371
:101CD0009F93EF93FF9381B18832C9F0893240F42A
:101CE000803199F0883199F0883009F04BC00DC0EF
:101CF000803441F1813420F4883309F043C03DC081
:101D00008035A9F08835F1F52BC0109276029091BC
:101D100076028091B702981750F5E92FF0E0E95864
:101D2000FD4F808183B99F5F9093760217C08091A9
:101D3000760293B1E82FF0E0E957FD4F90838F5F73
:101D4000809376022091760230E08091B70290E095
:101D500001972817390714F485EC18C085E816C0D8
:101D600083B1E0917602F0E0E957FD4F80838091E6
:101D70006E02816080936E0208C081B180936F0211
:101D800085EA04C081B180936F0284E986BFFF9128
:101D9000EF919F918F913F912F910F900FBE0F90D8
:101DA0001F90189508959093CA008093C9000895D4
:101DB00008959093D2008093D10008950895909350
:101DC000CC008093CB00089508959093C800809331
:101DD000C700089508959093CE008093CD00089594
:101DE00008959093D0008093CF0008950895909324
:101DF000D4008093D30008958AE060E043E020910E
:101E0000EF020E94B50D0895282F8093EF028AE01B
:101E100060E043E00E94B50D0895282F8AE060E05D
:101E200046E00E94B50D02C00E94C80B06B600FC39
:101E3000FBCF809175028823B9F708950F93282F5F
:101E4000062F8AE060E045E00E94EA0D02C00E9491
:101E5000C80B06B600FCFBCF809175028823B9F74A
:101E60000F9108950F931F93DF93CF9300D0CDB7B9
:101E7000DEB7882311F080E090C08FE693E063E046
:101E80000E94850C20916F038091E10282272093AC
:101E9000E102082F10E0C80180769070892B81F054
:101EA000229526952770822F817080935D03269559
:101EB000217020936003E091C700F091C80009955C
:101EC000C80186709070892B81F08091E10286951F
:101ED000982F917090933B038695817080936A034D
:101EE000E091C900F091CA00099503FF1CC08AE087
:101EF0006BE10E945A0D8AE0BE016F5F7F4F42E0A6
:101F00000E94DB0C298130E086E0220F331F8A9586
:101F1000E1F78A8190E0282B392BE091CB00F091FA
:101F2000CC00C901099500FF1DC08AE065E10E944F
:101F30005A0D8AE0BE016F5F7F4F42E00E94DB0CCA
:101F40009A8180E0298130E0822B932B90936C035F
:101F500080936B038091E102E091CD00F091CE007F
:101F600081700995809170038093F00283FF05C012
:101F7000E091CF00F091D00009958091710380939A
:101F8000EE028091E10287FF05C0E091D100F0915F
:101F9000D20009951092B80281E00F900F90CF9176
:101FA000DF911F910F9108950E94320F0895809143
:101FB000B802882359F4829B09C081E08093B8025B
:101FC0008AE060E040E023E00E94610C089502C0D6
:101FD0000E94C80B06B600FCFBCF809175028823D7
:101FE000B9F786E090E00E94F4090E94D70F02C082
:101FF0000E94C80B06B600FCFBCF809175028823B7
:10200000B9F708958AE060E044E00E94850D0E94DF
:10201000E70F08951F93122F1092E40297E0909318
:10202000E5028093E6026093E7025093E802409352
:10203000E9028AE064EE72E046E00E94230E0E940C
:10204000E70F112349F004C00E94D70F0E94C80B6C
:102050008091EE0280FFF8CF1F9108951F93122FF9
:102060001092E40298E09093E5028093E602609378
:10207000E7025093E8024093E9028AE064EE72E0DE
:1020800046E00E94230E0E94E70F112349F004C08E
:102090000E94D70F0E94C80B8091EE0280FFF8CFFC
:1020A0001F9108958AE065E14CE353E022E00E942D
:1020B000A00C30913D0320E080913C03280F311D9E
:1020C00030936C0320936B03C90108958AE06DE09F
:1020D0004CE353E024E00E94A00C90913D0380E08B
:1020E00020913C03820F911D90935B0380935A03D0
:1020F00090913F0380E020913E03820F911D9093C9
:102100005F0380935E0308958AE063E04CE353E04D
:1021100028E10E94A00C80913C038093560380919B
:102120003D0380935C0380913E038093570380912D
:102130003F0380936903809140038093550380910E
:102140004103809354039091430380E02091420324
:10215000820F911D909368038093670390914503CC
:1021600080E020914403820F911D9093620380933D
:1021700061039091470380E020914603820F911DF7
:1021800090935B0380935A039091490380E02091E0
:102190004803820F911D90935F0380935E0390919B
:1021A0004B0380E020914A03820F911D90936E03B0
:1021B00080936D0390914D0380E020914C03820F3A
:1021C000911D909366038093650390914F0380E087
:1021D00020914E03820F911D90936C0380936B03AB
:1021E0009091510380E020915003820F911D9093B4
:1021F0006403809363039091530380E02091520322
:10220000820F911D9093590380935803089588E499
:102210000E949E0B84ED9FE00E94AD0B0895909369
:10222000DE028093DD027093E0026093DF02089586
:102230001092DE021092DD021092E0021092DF0294
:1022400008951092C10208956F927F928F929F928B
:10225000AF92BF92CF92DF92EF92FF920F931F93B4
:10226000CF93DF933B014C0159016A01E12C90E8C7
:10227000F92E012D112DC0E0D0E0D801C701862133
:102280009721A821B9210097A105B105C1F0D80176
:10229000C7018A219B21AC21BD210097A105B10571
:1022A00039F0609181037091820381E390E00DC069
:1022B000609181037091820380E390E006C0609199
:1022C00081037091820388E590E00E94DB1E2196D5
:1022D000C031D10529F016950795F794E794CDCF35
:1022E000DF91CF911F910F91FF90EF90DF90CF90F2
:1022F000BF90AF909F908F907F906F900895CF92F6
:10230000DF92EF92FF921F936B017C01142F60917B
:1023100081037091820380E390E00E94DB1E609154
:1023200081037091820388E790E024C01150812FCF
:10233000880F880FA701960104C0569547953795D9
:1023400027958A95D2F7DA01C9018F709070A07035
:10235000B0708A309105A105B10530F46091810318
:1023600070918203805D05C060918103709182034A
:10237000895C90E00E94DB1E1123C1F61F91FF9043
:10238000EF90DF90CF900895AF92BF92CF92DF92FF
:10239000EF92FF920F931F93CF93DF935B016C013A
:1023A00021E0E22EF12C012D112DC0E0D0E011C072
:1023B000C801B7012AE030E040E050E00E948C1CE8
:1023C0002196CB30D10581F0AC01CB01DA017C0143
:1023D0008D01C601B501A80197010E94BE1C2A30DB
:1023E00031054105510520F7C601B501A801970146
:1023F0000E94BE1CCA01B9012AE030E040E050E072
:102400000E94BE1C862F6091810370918203805DC3
:1024100090E00E94DB1EC801B7012AE030E040E0F6
:1024200050E00E94BE1CC901DA017C018D01E1145B
:10243000F10401051105C1F6DF91CF911F910F91B4
:10244000FF90EF90DF90CF90BF90AF900895AF9244
:10245000BF92CF92DF92EF92FF920F931F93CF9391
:10246000DF937B018C0197FF22C060918103709103
:1024700082038DE290E00E94DB1EAA24BB2465014A
:10248000AE18BF08C00AD10A14C0C801B7012AE0BB
:1024900030E040E050E00E948C1C2196CB30D1050A
:1024A000D1F0AC01CB01DA017C018D0109C05B01E7
:1024B0006C0131E0E32EF12C012D112DC0E0D0E0B4
:1024C000C601B501A80197010E94E01C2A30310520
:1024D00041055105D4F6C601B501A80197010E9436
:1024E000E01CCA01B9012AE030E040E050E00E945F
:1024F000E01C862F6091810370918203805D90E0E3
:102500000E94DB1EC801B7012AE030E040E050E045
:102510000E94E01CC901DA017C018D011E141F0418
:1025200010061106C4F2DF91CF911F910F91FF9019
:10253000EF90DF90CF90BF90AF90089544FF03C01D
:102540000E942712089545FF03C00E94C4110895F8
:102550004F70440F0E947F110895CF93DF9300972F
:1025600009F445C0EC013FC0892F80528F3538F403
:102570006091810370918203892F90E010C09D309B
:1025800089F460918103709182038CE590E00E9450
:10259000DB1E609181037091820382E790E00E94CC
:1025A000DB1E20C09A3079F4609181037091820320
:1025B0008CE590E00E94DB1E6091810370918203A4
:1025C0008EE690E0ECCF60918103709182038CE500
:1025D00090E00E94DB1E688170E080E090E042E0C5
:1025E0000E947F1121969881992309F0BDCFDF9138
:1025F000CF910895CF93DF93EC01009749F080913C
:102600002D0190912E010E94AD12CE010E94AD12BB
:10261000DF91CF91089585ED90E00E94AD12609119
:102620008103709182038AE090E00E94DB1E60913A
:10263000C10270E080E090E00E9427128DEE90E0F1
:102640000E94AD126091C20270E080E090E00E94B2
:10265000271285EF90E00E94AD126091C30270E0F6
:1026600080E090E00E94271280E091E00E94AD128D
:1026700060918103709182038AE090E00E94DB1EEA
:102680008091C202882319F489E091E002C08CE0B5
:1026900091E00E94AD1260918103709182038AE003
:1026A00090E00E94DB1E8091C20290E008950F939B
:1026B0001F93CF93DF93EC018B0180913A019091AE
:1026C0003B010E94AD122097A1F0609181037091AF
:1026D000820387E290E00E94DB1ECE010E94AD12D1
:1026E000609181037091820387E290E00E94DB1E7B
:1026F00006C080912801909129010E94AD1280911D
:102700004201909143010E94AD1201151105A1F003
:10271000609181037091820387E290E00E94DB1E4A
:10272000C8010E94AD12609181037091820387E21B
:1027300090E00E94DB1E06C0809128019091290143
:102740000E94AD12DF91CF911F910F910895EF92EA
:10275000FF920F931F93E62E0E94AD1260918103AA
:10276000709182038AE390E00E94DB1EFF2400E068
:1027700010E0C801B7010E94271260918103709197
:1027800082038AE390E00E94DB1E8091BB0290915D
:10279000BC020E94AD1260918103709182038AE3B2
:1027A00090E00E94DB1E1F910F91FF90EF90089523
:1027B000682F8091B9029091BA020E94A71381E11B
:1027C00091E00E94AD1208958091C502882331F0F6
:1027D0008091C3028F5F8093C3021EC08091C402A8
:1027E0008823A9F48091B9029091BA026091BD0248
:1027F0000E94A71387E191E00E94AD1260918103CE
:10280000709182038AE090E00E94DB1E05C08091F7
:10281000C2028F5F8093C2021092C4021092C5025E
:102820000895DF93CF9300D0CDB7DEB79A83898325
:102830007093BC026093BB02662757FD6095762FAC
:102840004093BD025093BE026093BF027093C002DA
:102850008091C1028F5F8093C10286EC92E00E945A
:102860003E1E892B59F4E091DD02F091DE02309793
:1028700009F0099589819A81FC01099586EC92E01D
:102880000E943E1E892B59F48091C502882339F499
:10289000E091DF02F091E002309709F009950E9483
:1028A000E4130F900F90CF91DF910895CF93DF93B2
:1028B000EC018091C4028823A1F58091C502882390
:1028C00081F58091B9029091BA020E94A7138CE120
:1028D00091E00E94AD12209799F060918103709170
:1028E00082038AE390E00E94DB1E60918103709175
:1028F000820380E290E00E94DB1ECE010E94AD12B6
:1029000081E08093C50260918103709182038AE027
:1029100090E00E94DB1E86EC92E061E070E00E9495
:102920005E1EDF91CF910895CF93DF93EC018091EC
:10293000C4028823B9F58091C502882399F5809156
:10294000B9029091BA020E94A7138CE091E00E9414
:10295000AD122097B1F060918103709182038AE3F8
:1029600090E00E94DB1E8881803241F060918103FB
:102970007091820380E290E00E94DB1ECE010E94F3
:10298000AD1281E08093C402609181037091820353
:102990008AE090E00E94DB1E86EC92E061E070E04D
:1029A0000E945E1EDF91CF910895EF92FF920F93E8
:1029B0001F93CF93DF938C01EB017A018091C402C6
:1029C0008823E9F58091C5028823C9F50115110511
:1029D00089F06115710589F0D801FB0104C081916E
:1029E0001196981751F49C919923C9F780818823F7
:1029F000B1F706C06115710519F081E08093C4023A
:102A00008091C4028823D9F0822F0E94D813C80174
:102A1000BE010E945713C7010E94FA1281E0809301
:102A2000C40260918103709182038AE090E00E9469
:102A3000DB1E86EC92E061E070E00E945E1EDF919A
:102A4000CF911F910F91FF90EF9008954F925F9259
:102A50006F927F928F92AF92CF92DF92EF92FF921E
:102A60000F931F93DF93CF9300D000D0CDB7DEB785
:102A700069837A838B839C8329013A018091C40204
:102A8000882309F087C08091C502882309F082C09D
:102A900084FE20C02E153F05400751074CF41092CC
:102AA000C402D801C701821B930BA40BB50B08C04D
:102AB0001092C402DA01C9018E199F09A00BB10B53
:102AC00029813A814B815C81281739074A075B07C6
:102AD0001CF51FC02E153F054007510748F4109202
:102AE000C402D801C701821B930BA40BB50B08C00D
:102AF0001092C402DA01C9018E199F09A00BB10B13
:102B000029813A814B815C81281739074A075B0785
:102B100018F481E08093C4028091C4028823D1F12B
:102B20008A2D0E94D81380918401909185010E9482
:102B3000AD1269817A818B819C81482D0E949E1201
:102B400080913A0190913B010E94AD12C301B20104
:102B5000482D0E949E1280914201909143010E9453
:102B6000AD12C801B701482D0E949E12C6010E94F5
:102B7000FA1281E08093C402609181037091820314
:102B80008AE090E00E94DB1E86EC92E061E070E05B
:102B90000E945E1E0F900F900F900F90CF91DF91CB
:102BA0001F910F91FF90EF90DF90CF90AF908F909B
:102BB0007F906F905F904F9008956F927F928F9269
:102BC0009F92AF92CF92DF92EF92FF920F931F935B
:102BD0003B014C018091C402882309F059C08091C7
:102BE000C502882309F054C0C801B7010E94471BE1
:102BF0007B018C0120E030E040E050E00E94AC1B03
:102C0000882354F460E070E080E090E0A801970130
:102C10000E94471B7B018C01C401B30120E030E01E
:102C200040E050E00E94AC1B87FD03C0A40193016B
:102C30000AC060E070E080E090E0A40193010E948F
:102C4000471B9B01AC01CA01B901A80197010E9471
:102C5000AC1B8823ECF48A2D0E94D8138091840148
:102C6000909185010E94AD12C6010E94FA1281E086
:102C70008093C40260918103709182038AE090E0A6
:102C80000E94DB1E86EC92E061E070E00E945E1E16
:102C90001F910F91FF90EF90DF90CF90AF909F909A
:102CA0008F907F906F9008954F925F926F927F9276
:102CB0008F929F92AF92BF92CF92EF920F931F93FA
:102CC0004B015C0129013A018091C4028823B1F5CE
:102CD0008091C502882391F582169306A406B50655
:102CE00069F18E2D0E94D81380913A0190913B0199
:102CF0000E94AD12C501B4014C2D0E949E1280911C
:102D00004201909143010E94AD12C301B2014C2DCA
:102D10000E949E12C8010E94FA1281E08093C402B0
:102D200060918103709182038AE090E00E94DB1E33
:102D300086EC92E061E070E00E945E1E1F910F91B0
:102D4000EF90CF90BF90AF909F908F907F906F90BB
:102D50005F904F9008952F923F924F925F926F92A3
:102D60007F928F929F92AF92CF92DF92EF92FF92DB
:102D70000F931F933B014C0119012A018091C4025A
:102D8000882309F041C08091C5028823E9F5D80164
:102D9000C70182279327A427B52786219721A82139
:102DA000B9210097A105B10579F18A2D0E94D813A8
:102DB00080913A0190913B010E94AD12B301C40190
:102DC000A20191010E94241180914201909143013E
:102DD0000E94AD12B301C401A80197010E94241101
:102DE000C6010E94FA1281E08093C40260918103BF
:102DF000709182038AE090E00E94DB1E86EC92E0F4
:102E000061E070E00E945E1E1F910F91FF90EF90B5
:102E1000DF90CF90AF909F908F907F906F905F905A
:102E20004F903F902F900895CF93DF93E901892B26
:102E300051F4672B51F1842F0E94D8138091DC014B
:102E40009091DD010CC0672B19F020E030E01FC02D
:102E5000842F0E94D8138091F7019091F8010E946D
:102E6000AD12CE010E94FA1281E08093C4026091FB
:102E70008103709182038AE090E00E94DB1E86EC61
:102E800092E061E070E00E945E1E21E030E0C90146
:102E9000DF91CF9108952F923F924F925F926F9260
:102EA0007F928F929F92AF92BF92CF92DF92EF92DA
:102EB000FF920F931F93DF93CF930F92CDB7DEB79F
:102EC000F82E992E2B0159016A011801E98280918F
:102ED000C402882309F099C08091C502882309F0B3
:102EE00094C0211531054105510551F48E2D0E94E4
:102EF000D8138091BD019091BE010E94AD1260C0B7
:102F00008F2D498198010E941417019709F47DC003
:102F10008F2D992D9C014901B201EE24FF248701D8
:102F200041E03701660C771CF401208131812115C5
:102F3000310599F0FB0180819181009771F0D901F1
:102F4000FC0104C081911196981769F49C91992312
:102F5000C9F780818823B1F708C0FB018081918186
:102F60002817390711F04093C4028091C4028823C6
:102F7000D9F189810E94D813F2E0AF16B104C104DF
:102F8000D104A0F080915501909156010E94AD129C
:102F90000894A108B108C108D108AE18BF08C00A3A
:102FA000D10AC601B50144EA0E949E12640C751C48
:102FB000F30160817181F401808191810E94571336
:102FC000C1010E94FA1281E08093C40260918103E2
:102FD000709182038AE090E00E94DB1E86EC92E012
:102FE00061E070E00E945E1E0894E11CF11C011D6E
:102FF000111D82E090E0880E991E6E5F7F4FEA14EB
:10300000FB040C051D0508F48CCF0F90CF91DF91C8
:103010001F910F91FF90EF90DF90CF90BF90AF90F6
:103020009F908F907F906F905F904F903F902F90E8
:1030300008952F923F924F925F926F927F928F925C
:103040009F92AF92BF92CF92DF92EF92FF920F9337
:103050001F93DF93CF93CDB7DEB727970FB6F894C2
:10306000DEBF0FBECDBFF82ED92EC62EB72E39012A
:103070004A011C830B83ED828091C402882309F0EE
:10308000B6C08091C502882309F0B1C02115310571
:103090004105510541F48E2D0E94D8138091BD0148
:1030A0009091BE017DC08F2D4D812B813C810E946E
:1030B0001417019709F49BC0130124012F2D3D2DF6
:1030C000C9019A8389832C2D3B2DC9019F838E834F
:1030D000E981FA81E080F18002811381C801B701A2
:1030E000EE81FF8120813181428153810E94471B03
:1030F0005B016C0120E030E040E050E00E94AC1B3E
:10310000882354F460E070E080E090E0A60195012F
:103110000E94471B5B016C01C801B7012CEA35EC2A
:1031200047E257E30E94291C7B018C0120E030E03C
:1031300040E050E00E94AC1B882354F460E070E053
:1031400080E090E0A80197010E94471B7B018C0161
:1031500008942108310841085108C601B501A801A9
:1031600097010E94251C181694F58D810E94D81392
:1031700080915501909156010E94AD12089461080A
:103180007108810891086218730884089508C401C1
:10319000B30144EA0E949E128091840190918501BE
:1031A0000E94AD128B819C810E94FA1281E0809373
:1031B000C40260918103709182038AE090E00E94D2
:1031C000DB1E86EC92E061E070E00E945E1E898169
:1031D0009A8104969A838983EE81FF813496FF83D6
:1031E000EE83211431044104510409F071CF279674
:1031F0000FB6F894DEBF0FBECDBFCF91DF911F9108
:103200000F91FF90EF90DF90CF90BF90AF909F9085
:103210008F907F906F905F904F903F902F90089588
:103220002F923F924F925F926F927F928F929F92D6
:10323000AF92BF92CF92DF92EF92FF920F931F93C4
:10324000CF93DF93F82ED92E362E272E49015A011F
:1032500028016E2C7C2C8091C402882309F03EC189
:103260008091C502882309F039C121153105410536
:10327000510551F48E2D0E94D8138091BD0190917B
:10328000BE010E94AD126CC08F2D4E2D98010E9480
:103290001417019709F422C12F2D3D2DC901EC010E
:1032A000232D322DC9016C0181E27816B1F087150A
:1032B00040F091E1791689F0E2E17E1609F0BEC096
:1032C0006EC0F1E47F1649F082E4781609F467C015
:1032D00092E2791609F0B2C062C0850174010894C7
:1032E000E108F108010911099881F6018081981718
:1032F00009F44AC0862D0E94D813809155019091FF
:1033000056010E94AD12089481089108A108B108E5
:103310008E189F08A00AB10AC501B40144EA0E94B0
:103320009E1280913A0190913B010E94AD126881FA
:10333000772767FD7095872F972F472D0E949E1244
:1033400080914201909143010E94AD12F60160818B
:10335000772767FD7095872F972F472D0E949E1224
:10336000C2010E94FA1281E08093C402609181033D
:10337000709182038AE090E00E94DB1E86EC92E06E
:1033800061E070E00E945E1E21960894C11CD11C71
:10339000E114F1040105110509F0A1CF9FC08501D9
:1033A00074010894E108F1080109110928813981A3
:1033B000F6018081918128173907A1F1862D0E949D
:1033C000D81380915501909156010E94AD12089436
:1033D00081089108A108B1088E189F08A00AB10AB7
:1033E000C501B40144EA0E949E1280913A01909175
:1033F0003B010E94AD1268817981882777FD809515
:10340000982F472D0E949E12809142019091430176
:103410000E94AD12F60160817181882777FD809549
:10342000982F9BCF229682E090E0C80ED91EE1141F
:10343000F1040105110509F0B4CF50C085017401F4
:103440000894E108F10801091109288139814A81AC
:103450005B81F60180819181A281B38128173907B0
:103460004A075B0781F1862D0E94D8138091550190
:10347000909156010E94AD12089481089108A1080C
:10348000B1088E189F08A00AB10AC501B40144EA28
:103490000E949E1280913A0190913B010E94AD12D0
:1034A000688179818A819B81472D0E949E1280913B
:1034B0004201909143010E94AD12F6016081718139
:1034C000828193814ACF249684E090E0C80ED91E71
:1034D000E114F1040105110509F0B2CFDF91CF919C
:1034E0001F910F91FF90EF90DF90CF90BF90AF9022
:1034F0009F908F907F906F905F904F903F902F9014
:1035000008952F923F924F925F926F927F928F9287
:103510009F92AF92BF92CF92DF92EF92FF920F9362
:103520001F93DF93CF9300D000D00F92CDB7DEB7BB
:10353000B82E992E6A837B8329013A011601A9824C
:103540008091C402882309F08AC08091C502882333
:1035500009F085C0E114F1040105110529F02115D8
:1035600031054105510541F489810E94D8138091AC
:10357000BD019091BE015DC08B2D6A817B81498127
:1035800096010E941417019709F469C02B2D392D5B
:10359000C9014C012A813B81C9019D838C8357015C
:1035A000680114C0C4016C817D81A2010E94871E44
:1035B000009721F081E08093C40216C0840C951C12
:1035C0002C813D81240D351D3D832C830894A10859
:1035D000B108C108D1083FEFA3163FEFB3063FEF94
:1035E000C3063FEFD306F1F68091C4028823B9F1F8
:1035F00089810E94D81382E0E816F10401051105C3
:10360000A0F080915501909156010E94AD1208944E
:10361000E108F10801091109EA18FB080C091D0964
:10362000C801B70144EA0E949E12809168019091FE
:1036300069010E94AD12C1010E94FA1281E08093DB
:10364000C40260918103709182038AE090E00E943D
:10365000DB1E86EC92E061E070E00E945E1E0F903F
:103660000F900F900F900F90CF91DF911F910F91BE
:10367000FF90EF90DF90CF90BF90AF909F908F9092
:103680007F906F905F904F903F902F90089550588B
:10369000BB27AA270ED09FC090D030F095D020F045
:1036A00031F49F3F11F41EF485C00EF4E095E7FB62
:1036B0007BC0E92FA1D080F3BA1762077307840794
:1036C000950718F071F49EF5B9C00EF4E0950B2E35
:1036D000BA2FA02D0B01B90190010C01CA01A00164
:1036E0001124FF27591B99F0593F50F4503E68F1BF
:1036F0001A16F040A22F232F342F4427585FF3CF00
:10370000469537952795A795F0405395C9F77EF4D0
:103710001F16BA0B620B730B840BBAF09150A1F019
:10372000FF0FBB1F661F771F881FC2F70EC0BA0F9F
:10373000621F731F841F48F4879577956795B79527
:10374000F7959E3F08F0B3CF9395880F08F099271F
:10375000EE0F97958795089503D008F481E00895BA
:10376000990F0008550FAA0BE0E8FEEF1616170692
:10377000E807F907C0F012161306E407F50798F0FA
:10378000621B730B840B950B39F40A2661F0232B13
:10379000242B252B21F408950A2609F4A140A6958F
:1037A0008FEF811D811D089597F99F6780E870E074
:1037B00060E008959FEF80EC089500240A941616A7
:1037C000170618060906089500240A94121613060F
:1037D000140605060895092E0394000C11F488239D
:1037E00052F0BB0F40F4BF2B11F460FF04C06F5FB9
:1037F0007F4F8F4F9F4F089557FD9058440F551F8F
:1038000059F05F3F71F04795880F97FB991F61F062
:103810009F3F79F087950895121613061406551FD9
:10382000F2CF4695F1DF08C0161617061806991F45
:10383000F1CF86957105610508940895E894BB273A
:1038400066277727CB0197F908958ADF08F48FEF71
:1038500008950BD0C0CFB1DF28F0B6DF18F0952364
:1038600009F0A2CFA7CF1124EACFC6DFA0F3959F1E
:10387000D1F3950F50E0551F629FF001729FBB2757
:10388000F00DB11D639FAA27F00DB11DAA1F649F03
:103890006627B00DA11D661F829F2227B00DA11DB6
:1038A000621F739FB00DA11D621F839FA00D611D3C
:1038B000221F749F3327A00D611D231F849F600D5D
:1038C000211D822F762F6A2F11249F5750408AF096
:1038D000E1F088234AF0EE0FFF1FBB1F661F771F22
:1038E000881F91505040A9F79E3F510570F05CCF62
:1038F000A6CF5F3FECF3983EDCF38695779567950E
:10390000B795F795E7959F5FC1F7FE2B880F911D3F
:103910009695879597F90895629FD001739FF0015E
:10392000829FE00DF11D649FE00DF11D929FF00D4F
:10393000839FF00D749FF00D659FF00D9927729F86
:10394000B00DE11DF91F639FB00DE11DF91FBD0111
:10395000CF011124089597FB092E07260AD077FD81
:1039600004D049D006D000201AF4709561957F4F9D
:103970000895F6F7909581959F4F0895A1E21A2E2C
:10398000AA1BBB1BFD010DC0AA1FBB1FEE1FFF1F03
:10399000A217B307E407F50720F0A21BB30BE40B53
:1039A000F50B661F771F881F991F1A9469F760959A
:1039B0007095809590959B01AC01BD01CF01089554
:1039C00097FB092E05260ED057FD04D0D7DF0AD06D
:1039D000001C38F450954095309521953F4F4F4F3E
:1039E0005F4F0895F6F790958095709561957F4F9C
:1039F0008F4F9F4F0895AA1BBB1B51E107C0AA1F01
:103A0000BB1FA617B70710F0A61BB70B881F991F7F
:103A10005A95A9F780959095BC01CD0108952F92F4
:103A20003F925F926F927F928F929F92AF92BF92DE
:103A3000CF92DF92EF92FF920F931F93CF93DF937A
:103A40008C011B01EA016115710519F0FB019183DD
:103A50008083209749F0CE010297839728F020E0D9
:103A600030E040E050E0F6C0F801A1908F018A2DCF
:103A700090E00E947F1E892BB9F7FDE2AF1631F46A
:103A8000F801A1908F015524539407C0FBE2AF16B3
:103A900019F4F801A1908F015524209719F0C03135
:103AA000D105C1F4F0E3AF1679F4F80180818837CD
:103AB00011F0883549F4F801A1800E5F1F4FF2E044
:103AC0005F2AC0E1D0E006C0209721F480E3A81669
:103AD000E9F427C0C830D10531F1C930D10524F44B
:103AE000C230D10531F50CC0CA30D10589F0C031E2
:103AF000D105F9F4C12CD12CE12CB8E0FB2E28C063
:103B0000C12CD12CE12CA0E4FA2E22C0CAE0D0E0D6
:103B1000FCECCF2EFCECDF2EFCECEF2EFCE0FF2EBD
:103B200017C0C8E0D0E0C12CD12CE12CE0E1FE2E82
:103B30000FC09E01442737FD4095542F60E070E090
:103B400080E090E80E94BE1CC901DA016C017D0191
:103B500020E030E040E050E060E03E01882477FC67
:103B60008094982C70EDB72EBA0CE9E0EB1570F448
:103B70008A2D81548A3118F499ECB92E06C08A2D09
:103B800081568A3150F589EAB82EBA0C8B2D90E017
:103B90008C179D0714F56F3FE1F0C216D306E406BB
:103BA000F506B0F0CA01B901A40193010E948C1C72
:103BB0009B01AC012B0D311D411D511D2130F0E049
:103BC0003F07F0E04F07F0E85F0710F461E001C045
:103BD0006FEFF801A1908F01C5CF2114310481F05E
:103BE000662331F001501040F1011183008308C0B9
:103BF00051FE1AC002501040F1011183008314C01D
:103C000067FF12C050FC05C02FEF3FEF4FEF5FE79B
:103C100004C020E030E040E050E882E290E0909381
:103C200086038093850316C050FE08C050954095CA
:103C3000309521953F4F4F4F5F4F0CC057FF0AC043
:103C400082E290E090938603809385032FEF3FEF0D
:103C50004FEF5FE7B901CA01DF91CF911F910F913B
:103C6000FF90EF90DF90CF90BF90AF909F908F909C
:103C70007F906F905F903F902F900895DC012D9280
:103C80003D924D925D926D927D928D929D92AD92FC
:103C9000BD92CD92DD92ED92FD920D931D93CD9349
:103CA000DD93FF91EF918DB78D938EB78D938FB785
:103CB0008D93ED93FD93882799270994DC01CB011F
:103CC00081309105811D2D903D904D905D906D90BE
:103CD0007D908D909D90AD90BD90CD90DD90ED90BC
:103CE000FD900D911D91CD91DD91ED91FD910D9086
:103CF000F894FEBF0FBEEDBFED91FD9109949111B7
:103D000086C0803219F089508550D0F70895FB01A4
:103D1000DC0104C08D910190801921F44150504084
:103D2000C8F7881B990B0895FB01DC0102C00190C4
:103D30000D9241505040D8F70895FB01DC014150ED
:103D4000504030F08D910190801919F40020B9F79E
:103D5000881B990B0895FB01DC014150504048F04D
:103D600001900D920020C9F701C01D9241505040B2
:103D7000E0F70895FB019F01E8944230C4F045321A
:103D8000B4F44A3029F497FB1EF4909581959F4F27
:103D9000642F77270E94FB1C805D8A330CF0895DBD
:103DA0008193CB010097A1F716F45DE25193108245
:103DB000C9010C940A1F0F931F93CF93DF938C01BB
:103DC000EB018B8181FF1BC082FF0DC02E813F81E3
:103DD0008C819D812817390764F4E881F98101936A
:103DE000F983E88306C0E885F985802F0995892B3A
:103DF00031F48E819F8101969F838E8302C00FEFE5
:103E00001FEFC801DF91CF911F910F91089599275E
:103E100088270895DC01FC01672F71917723E1F772
:103E2000329704C07C916D9370836291AE17BF0787
:083E3000C8F30895F894FFCFD8
:103E3800FFFF746573745F636D6430783031766149
:103E48006C756530783032726571756573740063AE
:103E58006D643D307830313B76616C3D307830327E
:103E680000636D643D307830313B00636D643D30F4
:103E78007830310076616C3D3078303200636D64A3
:103E88000076616C007B636D643D3078007606498E
:103E9800061C06AC0BB20BE40ED20EDE0EEA0EF0D8
:103EA8000ED80EF60E2D2D2D2D2D2D2D2D2D2D2D23
:103EB8002D2D2D2D2D2D2D2D2D2D2D2D0020546505
:103EC8007374732000204661696C757265732000F5
:103ED8002049676E6F726564004F4B004641494C3C
:103EE800004641494C3A00504153530049474E4F10
:103EF8005245004E554C4C0023012E20002A01202B
:103F0800457870656374656420002F0120576173DC
:103F180020003C0120546F2000440120456C656D51
:103F2800656E7420004B01204D656D6F7279204DD0
:103F380069736D617463680057012056616C75651B
:103F480073204E6F742057697468696E2044656CDD
:103F5800746120006A0120596F752041736B656494
:103F6800204D6520546F20436F6D70617265204E3F
:103F78006F7468696E672C20576869636820576199
:103F88007320506F696E746C6573732E0086012000
:103F9800457870656374656420706F696E746572C6
:103FA80020746F206265204E554C4C00BF012041A3
:103FB800637475616C20706F696E746572207761C7
:0A3FC80073204E554C4C00DE010042
:00000001FF
